:1000000012C019C018C017C016C015C014C013C044
:1000100012C011C010C00FC00EC00DC00CC00BC06C
:100020000AC009C008C011241FBECFE5D4E0DEBF5E
:10003000CDBF11D024C0E4CF80E487B987E886B96A
:10004000089597B18F71982B97B9369A3699FECF4C
:1000500084B195B10895F0DF81E087BB80EF81BB6B
:10006000D1E0C0E180E0EDDF8C3B924018F418BA9B
:1000700012BAF8CFB19BF6CFD8BBC2BBF3CFF8947E
:02008000FFCFB0
:00000001FF
